:100000000C943C020C946D020C946D020C946D02E5
:100010000C946D020C946D020C946D020C946D02A4
:100020000C946D020C946D020C946D020C946D0294
:100030000C946D020C946D020C946D020C946D0284
:100040000C946D020C946D020C946D020C946D0274
:100050000C946D020C946D020C946D020C943F0A8A
:100060000C946D020C94B30A0C94890A0C946D02E2
:100070000C946D020C946D020C946D020C946D0244
:100080000C946D020C946D020C946D020C946D0234
:100090000C946D020C946D020C946D020C946D0224
:1000A0000C946D020C946D020C946D020C946D0214
:1000B0000C946D020C946D020C946D020C946D0204
:1000C0000C946D020C946D020C946D020C946D02F4
:1000D0000C946D020C946D020C946D020C946D02E4
:1000E0000C946D020C947B070C94E1040C949E021A
:1000F0000C94E90A0C949A020C94E3070C94E20322
:100100000C94C7020C94CE030C9490020C94F00350
:100110000C94BD020C94D0020C94B9020C94D5023C
:100120000C94B5020C94BF030C94C3020C9492037C
:100130000C9490040C94A5020C94CB020C9496029F
:100140000C94D1020C94AB020C94A2020C94AF025A
:100150000C942804556E6B6E6F776E206572726F0B
:10016000720041204D4946415245205049434320A9
:10017000726573706F6E6465642077697468204E71
:10018000414B2E00546865204352435F4120646F09
:100190006573206E6F74206D617463682E00496E04
:1001A00076616C696420617267756D656E742E008E
:1001B000496E7465726E616C206572726F7220692F
:1001C0006E2074686520636F64652E2053686F75B8
:1001D0006C64206E6F742068617070656E2E0041D3
:1001E00020627566666572206973206E6F74206286
:1001F000696720656E6F7567682E0054696D656F5D
:10020000757420696E20636F6D6D756E69636174BE
:10021000696F6E2E00436F6C6C6973696F6E20643A
:10022000657465637465642E004572726F7220692F
:100230006E20636F6D6D756E69636174696F6E2E8C
:1002400000537563636573732E0000002000230064
:10025000260029002C002F003200000100000301BD
:1002600006010901556E6B6E6F776E2074797065AB
:100270000053414B20696E64696361746573205556
:100280004944206973206E6F7420636F6D706C65D4
:1002900074652E004D494641524520544E50335806
:1002A0005858004D494641524520444553466972CD
:1002B00065004D494641524520506C7573004D49CB
:1002C0004641524520556C7472616C6967687420B0
:1002D0006F7220556C7472616C696768742043009A
:1002E0004D494641524520344B42004D494641520A
:1002F0004520314B42004D4946415245204D696EE3
:10030000692C203332302062797465730050494380
:100310004320636F6D706C69616E742077697468D7
:100320002049534F2F494543203138303932202856
:100330004E464329005049434320636F6D706C69FA
:10034000616E7420776974682049534F2F49454383
:100350002031343434332D340050494343207479F0
:1003600070653A200043617264205549443A0000A8
:10037000002100240027002A002D00300033000156
:10038000010000040107010A0100002200250028E5
:10039000002B002E0031003400020100000501088E
:1003A000010B0105050505070508080808020202FA
:1003B000020A0A0808040404040101010101010100
:1003C000010303030303030303040707070C0C0CD7
:1003D0000C0C0C0C0C0202020206060606060606AF
:1003E000060B0B0B0B0B0B0B0B010210202008084C
:1003F0001020401020408002010201080402010187
:10040000020408102040808040201008040201806F
:1004100004020180402010080402010804020101C6
:1004200002040810204080010204081020408000CF
:10043000000A0B02090C0D0E08070304010000005E
:1004400000000000000000000000000000000000AC
:100450000000000000000000000000121110000069
:10046000000000000000000000000000000000008C
:10047000000000000000E90A11241FBECFEFD1E206
:10048000DEBFCDBF00E00CBF13E0A0E0B2E0EEE2C3
:10049000FCE100E00BBF02C007900D92A03CB10749
:1004A000D9F724E0A0ECB3E001C01D92A039B20757
:1004B000E1F712E0CCE3D2E000E006C021970109A9
:1004C000802FFE010E94040ECB33D10780E0080785
:1004D000A9F70E94200B0C94150E0C9400008CBD03
:1004E0009DBD08958150823108F05AC0E82FF0E098
:1004F0008827E258FD4F8F4F0C94040E9E02A202F3
:10050000900296029A02D002A502AB02AF02B50297
:10051000B902BD02C302C702D002CB02D102D5028A
:10052000809180008F778093800008958091800073
:100530008F7DF9CF80918000877FF5CF84B58F774D
:1005400084BD089584B58F7DFBCF8091B0008F77F7
:100550008093B00008958091B0008F7DF9CF809195
:1005600090008F77809390000895809190008F7D08
:10057000F9CF80919000877FF5CF8091A0008F7791
:100580008093A00008958091A0008F7DF9CF809185
:10059000A000877FF5CF809120018F778093200185
:1005A0000895809120018F7DF9CF80912001877F70
:1005B000F5CF1F93CF93DF93282F30E0F901E15D52
:1005C000FB4F8491F901E751FC4FD491F901ED55AE
:1005D000FC4FC491CC23A9F0162F81110E94720206
:1005E000EC2FF0E0EE0FFF1FE757FC4FA591B49101
:1005F0008FB7F894EC91111108C0D095DE23DC93ED
:100600008FBFDF91CF911F910895DE2BF8CFCF934D
:10061000DF9390E0FC01E751FC4F24918D559C4FF6
:10062000FC0184918823D1F090E0880F991FFC0190
:10063000E159FC4FA591B491FC01E757FC4FC591DE
:10064000D49161110EC09FB7F8948C91E22FE09580
:100650008E238C932881E223E8839FBFDF91CF9183
:1006600008958FB7F894EC91E22BEC938FBFF6CFFF
:100670003FB7F8948091D9039091DA03A091DB03FE
:10068000B091DC0326B5A89B05C02F3F19F0019659
:10069000A11DB11D3FBFBA2FA92F982F8827BC01DC
:1006A000CD01620F711D811D911D42E0660F771F04
:1006B000881F991F4A95D1F708958F929F92AF9204
:1006C000BF92CF92DF92EF92FF920E9438034B01CC
:1006D0005C0182E3C82ED12CE12CF12C0E9438035E
:1006E000681979098A099B09683E7340810591055B
:1006F000A8F321E0C21AD108E108F10888EE880EBB
:1007000083E0981EA11CB11CC114D104E104F104C2
:1007100029F7FF90EF90DF90CF90BF90AF909F9020
:100720008F900895AF92BF92CF92DF92EF92FF9297
:100730000F931F93CF93DF936C017B018B01040F09
:10074000151FEB015E01AE18BF08C017D10759F0A5
:100750006991D601ED91FC910190F081E02DC601E7
:100760001995892B79F7C501DF91CF911F910F91D1
:10077000FF90EF90DF90CF90BF90AF900895FC0175
:10078000538D448D252F30E0842F90E0821B930BF6
:10079000541710F0CF96089501970895FC01918D9C
:1007A000828D981761F0A28DAE0FBF2FB11D5D969F
:1007B0008C91928D9F5F9F73928F90E008958FEF41
:1007C0009FEF0895FC01918D828D981731F0828DF5
:1007D000E80FF11D858D90E008958FEF9FEF08954C
:1007E000FC01918D228D892F90E0805C9F4F821BB0
:1007F00091098F739927089583EE93E00E94F00387
:1008000021E0892B09F420E0822F0895FC01A48DBA
:10081000A80FB92FB11DA35ABF4F2C91848D90E022
:1008200001968F739927848FA689B7892C93A08905
:10083000B1898C91837080648C93938D848D98138F
:1008400006C00288F389E02D80818F7D8083089522
:10085000EF92FF920F931F93CF93DF93EC0181E010
:10086000888F9B8D8C8D98131AC0E889F9898081B7
:1008700085FF15C09FB7F894EE89FF896083E889EA
:10088000F98980818370806480839FBF81E090E0DC
:10089000DF91CF911F910F91FF90EF900895F62E69
:1008A0000B8D10E00F5F1F4F0F731127E02E8C8D03
:1008B0008E110CC00FB607FCFACFE889F989808148
:1008C00085FFF5CFCE010E940604F1CFEB8DEC0F32
:1008D000FD2FF11DE35AFF4FF0829FB7F8940B8F65
:1008E000EA89FB8980818062CFCF0F931F93CF93DA
:1008F000DF938C01D0E0C0E0F801EC0FFD1F6491A4
:10090000662341F083EE93E00E942804892B11F0C6
:100910002196F2CFCE01DF91CF911F910F910895D3
:10092000CF93DF93EC01888D8823B9F0AA89BB8926
:10093000E889F9898C9185FD03C0808186FD0DC011
:100940000FB607FCF7CF8C9185FFF2CF808185FF32
:10095000EDCFCE010E940604E9CFDF91CF9108953B
:1009600080E090E0892B29F00E94FC0381110E9415
:10097000000080E090E0892B49F080E090E0892B36
:1009800029F00E94000081110E94000080E090E0A8
:10099000892B49F080E090E0892B29F00E9400002B
:1009A00081110E94000080E090E0892B49F080E0F6
:1009B00090E0892B29F00E94000081110C94000026
:1009C0000895BC016E5F7F4FDC01ED91FC910190B9
:1009D000F081E02D40E0199591E0811190E0892FA0
:1009E00008958430F1F050F4813091F030F182308C
:1009F00091F0833099F084E591E008958630B9F064
:100A000098F08730B9F08F3FB1F782E691E0089512
:100A100089E292E0089585E192E008958BEF91E0FC
:100A200008958FED91E0089580EB91E008958EE9AF
:100A300091E0089584E891E0089581E492E00895BA
:100A400008958EBD00000DB407FEFDCF8EB508954C
:100A5000DF92EF92FF920F931F93CF93DF937C016E
:100A6000062FD42E152F80E590E00E946F0260E0E3
:100A7000F70186850E94D90282E10E942105CD2DD1
:100A8000D12F0C0F1D2F111DC017D10721F08991F7
:100A90000E942105F9CF61E0F7018685DF91CF91B2
:100AA0001F910F91FF90EF90DF900C94D9021F934C
:100AB000CF93DF93EC01162F80E590E00E946F0248
:100AC00060E08E850E94D902812F80680E942105F6
:100AD00080E00E942105182F61E08E850E94D902D6
:100AE000812FDF91CF911F9108950F931F93CF9383
:100AF000DF93EC01062F142F80E590E00E946F0237
:100B000060E08E850E94D902802F0E942105812FEE
:100B10000E94210561E08E85DF91CF911F910F9199
:100B20000C94D902CF92DF92EF92FF920F931F9312
:100B3000CF93DF93EC016B01F42E890140E062E07A
:100B40000E94750544E06AE0CE010E94750540E808
:100B500064E1CE010E947505A6016F2DCE010E94B1
:100B6000280543E062E0CE010E9475058FB7F89436
:100B7000C090D503D090D603E090D703F090D8036F
:100B80008FBF89E5C80ED11CE11CF11C6AE0CE01C3
:100B90000E94570582FF1BC040E062E0CE010E9428
:100BA000750564E4CE010E945705F801808362E474
:100BB000CE010E945705F801818380E0DF91CF913B
:100BC0001F910F91FF90EF90DF90CF9008952FB776
:100BD000F8948091D5039091D603A091D703B0915A
:100BE000D8032FBF8C159D05AE05BF0578F283E0B5
:100BF000E5CF2F923F924F925F926F927F928F92AA
:100C00009F92AF92BF92CF92DF92EF92FF920F939B
:100C10001F93CF93DF931F921F92CDB7DEB73C0196
:100C2000162F942E290180E0A114B10411F0F501D2
:100C30008081382C329490EF3922380E40E062E007
:100C4000C3010E9475054FE768E0C3010E94750566
:100C500040E864E1C3010E947505A201602FC30151
:100C60000E942805432D6AE1C3010E947505412FAA
:100C700062E0C3010E9475051C3051F46AE1C301B2
:100C80000E945705482F40686AE1C3010E9475051C
:100C90008FB7F8942090D5033090D6034090D703B7
:100CA0005090D8038FBFF4E22F0E311C411C511C11
:100CB00068E0C3010E945705982F992109F0BFC031
:100CC00080FF16C083E00F900F90DF91CF911F91AE
:100CD0000F91FF90EF90DF90CF90BF90AF909F90DB
:100CE0008F907F906F905F904F903F902F900895DE
:100CF0002FB7F8948091D5039091D603A091D70394
:100D0000B091D8032FBF82159305A405B50580F2D5
:100D1000D9CFE114F10409F467C0C114D10409F476
:100D200063C064E1C3010E945705982EF6018081DB
:100D3000891508F47EC090829920C9F180E590E081
:100D40000E946F0260E0F30186850E94D9029A94A6
:100D500082E90E942105882099F00FEF10E001C080
:100D6000000F8A94EAF782E90E942105902F90955E
:100D7000F701208192238023982B908388248394E9
:100D80008701080D111D891440F482E90E94210594
:100D9000F80181938F018394F6CF80E00E942105B2
:100DA000F801808361E0F30186850E94D90268E141
:100DB000C3010E9457058770A114B10411F0F50119
:100DC000808353FC38C0E114F104B9F1C114D1049B
:100DD000A1F1988D992389F1F6014081413031F4D8
:100DE000843029F58FEF6FCF80E0EBCF4230F8F001
:100DF00081111DC042509E012F5F3F4FB701C301BB
:100E00000E94920581115FCFF6019081E90EF11CDD
:100E1000F701329720819981291309C0F1E0EF1A77
:100E2000F108F70120819A81291709F44CCF87E056
:100E30004ACF84E048CF82E046CF80E044CF6CE0E8
:100E4000C3010E945705582E837109F462CF81E0D7
:100E50003ACF8F92AF92BF92CF92DF92EF92FF92F2
:100E60000F93CF93DF93CDB7DEB72C970FB6F894DF
:100E7000DEBF0FBECDBF90E699838A83EDEDF3E030
:100E8000DE01139681918D9383E0E33EF807D1F75D
:100E9000E0918204E150FF0BE058FB4FDE01199610
:100EA000CE010D9621912D93A817B907D9F71F925E
:100EB000812CB12CA12CD12CC12CF12CE12C0CE0DB
:100EC0009E012F5F3F4F40E16EE080E894E00E947A
:100ED000F9050F902C960FB6F894DEBF0FBECDBF6C
:100EE000DF91CF910F91FF90EF90DF90CF90BF9067
:100EF000AF908F9008956F927F928F92AF92BF9232
:100F0000CF92DF92EF92FF920F93CF93DF9300D0B7
:100F10001F921F92CDB7DEB73C0182E08D8340E087
:100F200064E2C3010E94750540E066E2C3010E94CD
:100F3000750546E268E4C3010E94750586E28B836D
:100F40008D818230F0F16CE1C3010E945705482F7A
:100F50004F776CE1C3010E94750587E08C831F9277
:100F6000812CCE0104965C0101966C0104977C01F2
:100F700001E09E012D5F3F4F40E36CE0C3010E9402
:100F8000F905982F0F90811119C08D818230C9F415
:100F90008C81811116C081E00F900F900F900F90FF
:100FA0000F90DF91CF910F91FF90EF90DF90CF9056
:100FB000BF90AF908F907F906F90089581E09230B6
:100FC00059F380E0E9CF2F923F924F925F926F9258
:100FD0007F928F929F92AF92BF92CF92DF92EF92C9
:100FE000FF920F931F93CF93DF93CDB7DEB72E976A
:100FF0000FB6F894DEBF0FBECDBF06E0413508F056
:101000004BC14E872B013C016CE10E945705482FD4
:101010004F776CE1C3010E94750583E989832E85B2
:10102000222329F081E0F2019081953008F480E0DC
:10103000992493941C869C85990F990F990F1E856E
:10104000191B17FD10E032E0882319F098E89B8304
:1010500033E021E0912F977009F420E0912F9595CE
:1010600095959595290FD1F094E0811193E029177A
:1010700008F4922F2C85E22FF0E03196E40DF51D57
:10108000232F4191A1E0B0E0AC0FBD1FA20FB11D15
:101090004C932F5F422F431B491798F38111185F20
:1010A00010320CF484C080E78A838B819C8189276D
:1010B0009D8189279E8189278F839E01285F3F4FCD
:1010C00047E0BE016F5F7F4FC3010E949205082F6A
:1010D0008111E2C01A8693E09B871D87FE01379637
:1010E0001F0109E08A84482D4295407F480D6AE13E
:1010F000C3010E9475051F92CE010A965C01FE0194
:101100003B966F0171019E012F5F3F4F40E36CE002
:10111000C3010E94F905082F0F90823009F065C0C5
:101120006CE1C3010E94570585FDB6C08F7109F4BB
:1011300080E2282F30E0412F110F550B4217530743
:101140000CF09EC0182FE22FE595E595E595EF5F31
:10115000922F977081E009F480E0E80F81E090E041
:101160008C0F9D1F8E0F911DFC012150310927709E
:10117000332781E090E002C0880F991F2A95E2F79B
:101180009C018081822B80838BCF85E98983FE85BA
:10119000FF2331F081E0F2019081983008F04BCFCD
:1011A00080E049CF87E98983F6E0FC87F9CF912F6A
:1011B00097709A87812F8595859585958E5F282FC5
:1011C0002295207F290F2A8301E0911101C000E0C0
:1011D000080F22242394312C2C0E3D1E280E311C86
:1011E000F9E0F81BFB871D877DCF811155C010E208
:1011F0009D8590320CF457CF8B81883809F042C01E
:1012000083E093E02C85E22FF0E03196E40DF51DAC
:10121000980FA1E0B0E0AC0FBD1FA80FB11D2C913D
:1012200021938F5F8913F5CF8B858C87833009F0ED
:101230004DC08A8581114AC09E012D5F3F4F41E01C
:10124000B101C3010E949205082F811125C09B8125
:10125000F101818198133CC09C818281981338C030
:10126000808182FF12C09394F2E09F1609F48DCF23
:1012700023E0921609F496CF81E0981609F4CDCEBA
:1012800005E00AC082E094E0BDCFF2018387892D9A
:10129000880F980E93949082802F2E960FB6F89414
:1012A000DEBF0FBECDBFDF91CF911F910F91FF9099
:1012B000EF90DF90CF90BF90AF909F908F907F90F6
:1012C0006F905F904F903F902F90089501E0E4CF92
:1012D00007E0E2CFFC0101900020E9F73197AF0170
:1012E000481B590BBC0183EE93E00C9492038F9240
:1012F0009F92AF92BF920F931F93CF93DF93CDB77F
:10130000DEB7A1970FB6F894DEBF0FBECDBF19A20E
:10131000423008F44AE08E010F5D1F4F842E912C5D
:10132000B12CA12CA50194010E94E20DE62FB90178
:10133000CA01EA30F4F4E05DD801EE938D01232B6D
:10134000242B252B79F790E080E0109719F0CD0140
:101350000E946A09A1960FB6F894DEBF0FBECDBFFA
:10136000DF91CF911F910F91BF90AF909F908F9081
:101370000895E95CE1CF009711F00C946A0990E0C0
:1013800080E00895CF93DF930E947504EC018EE610
:1013900092E00E946A098C0F9D1FDF91CF91089502
:1013A000CF93DF930E946A09EC018EE692E00E94DF
:1013B0006A098C0F9D1FDF91CF9108958F92AF9294
:1013C000BF92CF92DF92EF92FF920F93CF93DF9372
:1013D000CDB7DEB764970FB6F894DEBF0FBECDBFB2
:1013E000062FE62EF12CA701BC01CE0101960E942A
:1013F0000C0E21E030E02C0F3D1F2E0D3F1D402F25
:10140000BE016F5F7F4F80E894E00E9492058111DA
:1014100023C082E18C8B1B8A0E5F1F92812CCE0130
:1014200043965C0101966C0143977C019C0140E36B
:101430006CE080E894E00E94F9050F9081110CC0E7
:101440008C898130D1F48B898430B9F481E0998121
:101450009A3009F480E0819564960FB6F894DEBF67
:101460000FBECDBFDF91CF910F91FF90EF90DF9036
:10147000CF90BF90AF908F90089581E0EDCF1F92F5
:101480000F920FB60F9211242F933F938F939F9338
:10149000AF93BF938091D5039091D603A091D703CA
:1014A000B091D8033091D40323E0230F2D3758F5A2
:1014B0000196A11DB11D2093D4038093D503909371
:1014C000D603A093D703B093D8038091D90390910A
:1014D000DA03A091DB03B091DC030196A11DB11DDD
:1014E0008093D9039093DA03A093DB03B093DC03DA
:1014F000BF91AF919F918F913F912F910F900FBE10
:101500000F901F90189526E8230F0296A11DB11D7C
:10151000D2CF1F920F920FB60F9211240BB60F92DB
:101520002F933F934F935F936F937F938F939F93EB
:10153000AF93BF93EF93FF9383EE93E00E94060473
:10154000FF91EF91BF91AF919F918F917F916F919B
:101550005F914F913F912F910F900BBE0F900FBE57
:101560000F901F9018951F920F920FB60F92112493
:101570000BB60F922F938F939F93EF93FF93E0916E
:10158000F303F091F4038081E091F903F091FA0301
:1015900082FD1DC090818091FC038F5F8F7320912D
:1015A000FD03821741F0E091FC03F0E0ED51FC4FA8
:1015B000958F8093FC03FF91EF919F918F912F91D5
:1015C0000F900BBE0F900FBE0F901F90189580814B
:1015D000F2CFE3EEF3E01382128288EE93E0A0E014
:1015E000B0E084839583A683B78386E592E09183F8
:1015F000808385EC90E09587848784EC90E09787E2
:10160000868780EC90E0918B808B81EC90E0938BCF
:10161000828B82EC90E0958B848B86EC90E0978BAC
:10162000868B118E128E138E148EE0E8F4E088E61D
:1016300092E09183808385E3868785E0878708959C
:10164000CF93DF931F921F92CDB7DEB7789484B506
:10165000826084BD84B5816084BD85B5826085BDAE
:1016600085B5816085BD80916E00816080936E003C
:10167000109281008091810082608093810080912E
:1016800081008160809381008091800081608093DF
:1016900080008091B10084608093B1008091B0009F
:1016A00081608093B000809191008260809391006E
:1016B0008091910081608093910080919000816081
:1016C000809390008091A10082608093A10080911E
:1016D000A10081608093A1008091A000816080932F
:1016E000A0008091210182608093210180912101DD
:1016F000816080932101809120018160809320018D
:1017000080917A00846080937A0080917A00826070
:1017100080937A0080917A00816080937A00809132
:101720007A00806880937A001092C100E091F30300
:10173000F091F40382E08083E091EF03F091F003F5
:101740001082E091F103F091F20380E18083109226
:10175000FB03E091F703F091F80386E08083E091CA
:10176000F503F091F603808180618083E091F503B9
:10177000F091F603808188608083E091F503F09119
:10178000F603808180688083E091F503F091F60391
:1017900080818F7D80831FB7F8948091C003811171
:1017A00027C0E8EDF3E08491EEE1F4E09491E82FB6
:1017B000F0E0EE0FFF1FE159FC4FA591B491EC91C1
:1017C000E92321F461E085E30E94D90261E085E329
:1017D0000E9407038CB580618CBD8CB580648CBD84
:1017E00061E084E30E94070361E083E30E94070352
:1017F0008091C0038F5F8093C0031FBF61E0809121
:101800008E040E94070361E080918E040E94D90239
:1018100080918F048F3F09F4C7C060E00E940703E6
:1018200020918F0430E0F901E15DFB4F8491F901D3
:10183000E751FC4F0491F901ED55FC4F1491111142
:10184000A4C061E080918F040E94070360E0809152
:101850008F040E94D90283E090E00197F1F761E0E4
:1018600080918F040E94D9020E945D0340E064E2EF
:1018700080E894E00E94750540E066E280E894E02C
:101880000E94750546E268E480E894E00E947505D0
:1018900040E864E580E894E00E94750549EA66E561
:1018A00080E894E00E94750543E068E580E894E0F4
:1018B0000E94750548EE6AE580E894E00E9475058F
:1018C00040E46AE280E894E00E9475054DE362E23C
:1018D00080E894E00E94750568E280E894E00E9448
:1018E0005705982F9370933039F0482F436068E282
:1018F00080E894E00E94750584E792E00E94D00998
:101900008FEF8093DD038093DE038093DF0380936A
:10191000E0038093E1038093E20380E894E00E9477
:101920007B07882309F40DC180E894E00E94E1045C
:10193000882309F406C18FE692E00E94BB098AE978
:1019400092E00E94D00985E693E00E94750410E0C1
:1019500080918204181708F03DC0812F90E09C010F
:1019600020583B4F7901F9018381803180F18BE769
:1019700093E00E94BB09F701638170E090E080E092
:1019800040E10E9477091F5FE3CF81110E9472023C
:10199000E12FF0E0EE0FFF1FE65BFD4FA591B49144
:1019A000EC910E2309F44DCF4FE062E080E894E023
:1019B0000E94750513E00E945D0362E080E894E0F8
:1019C0000E94570584FF52CF1150A9F74FCF81E7EE
:1019D00092E0CFCF8FE692E00E94BB0989E593E0C9
:1019E0000E947504E0918D04EF77E13470F4F0E02B
:1019F000EF5EFD4F8081853009F443C080F4823072
:101A0000F9F030F4813009F448C084E692E01AC05D
:101A10008330A1F18430C9F78BEE92E013C0883097
:101A2000B1F138F4863081F1873079F782EB92E0BA
:101A300009C0893079F18F3F41F781E792E002C018
:101A40008DE093E00E94C2098FE692E00E94BB09FC
:101A50008CEA92E00E94D00984E00E9429078093DA
:101A6000C1038823E9F085EC92E00E94BB098091D4
:101A7000C1030E94F1040E94C2092EC086EF92E0C9
:101A8000E1CF80EE92E0DECF8EEB92E0DBCF83EA17
:101A900092E0D8CF84E992E0D5CF85E393E0D2CF2E
:101AA00087EE92E00E94D00980EA898384E08A83ED
:101AB00062E0CE0101960E94DE09811145C060E11D
:101AC00081E092E00E94DE0981113EC01092C103C4
:101AD0008EEF92E00E94D0098FE692E00E94BB094F
:101AE00081E493E00E94D00984E00E9429078823C2
:101AF00081F18CE593E00E94BB098FE692E00E94A1
:101B0000BB098AEA93E00E94BB094AE064E070E006
:101B100080E090E00E94770989EB93E00E94BB0986
:101B200002EC13E0F80161918F0183EE93E00E94D3
:101B30002804F3E0023D1F07A9F78FE692E00E9418
:101B4000BB090E94B004DCCE8093C10387E293E01E
:101B50008CCF87EE92E00E94D00980910002823102
:101B600018F48DE793E0C7CF80E38093C20384E04D
:101B70008093C30324EC33E042E062EC73E080E83E
:101B800094E00E9492058111ECCF81E08F93812C2B
:101B9000B12CA12C80E0C82E82E0D82E92ECE92E48
:101BA00093E0F92E04E0970140E36CE080E894E0D4
:101BB0000E94F9050F908111D4CF8EE893E00E9426
:101BC000D0099BCFA1E21A2EAA1BBB1BFD010DC0A1
:101BD000AA1FBB1FEE1FFF1FA217B307E407F507DD
:101BE00020F0A21BB30BE40BF50B661F771F881FB9
:101BF000991F1A9469F760957095809590959B014F
:101C0000AC01BD01CF010895EE0FFF1F881F8BBFF0
:101C10000790F691E02D1994FB01DC0102C00190C0
:0E1C20000D9241505040D8F70895F894FFCF30
:101C2E001247524B524956303030303837363530F5
:101C3E003206090000FF000000040300000000004F
:101C4E000007070000000000000500000000000073
:101C5E000001000000000000000000000000000075
:101C6E000000000000000000000000000000000066
:101C7E0000020000000028049203BF039004F0034A
:101C8E00CE03E20300000000E3077B07E1040D0A28
:101C9E00002030005363616E2061204D4946415251
:101CAE004520314B2054616720746F207772697420
:101CBE006520646174612E2E2E002A2A436172649F
:101CCE002044657465637465642A2A0057726974CA
:101CDE00696E6720746F204461746120426C6F637B
:101CEE006B2E2E2E0041757468656E746963617477
:101CFE00696F6E206661696C656420666F7220572D
:101D0E00726974653A200041757468656E74696312
:101D1E006174696F6E2073756363657373004461DC
:101D2E00746120776173207772697474656E2069AF
:101D3E006E746F20426C6F636B2073756363657393
:101D4E007366756C6C790057726974696E6720746E
:101D5E006F20426C6F636B206661696C65643A201C
:101D6E000052656164696E672066726F6D20446112
:101D7E00746120426C6F636B2E2E2E004175746859
:101D8E00656E7469636174696F6E206661696C65F6
:101D9E006420666F7220526561643A20005265615C
:101DAE0064696E67206661696C65643A2000426CF6
:101DBE006F636B2077617320726561642073756346
:101DCE006365737366756C6C790044617461206928
:101DDE006E20426C6F636B3A00202D2D3E2000006A
:00000001FF
